:100000000C9472000C949A000C949A000C949A0030
:100010000C949A000C949A000C949A000C949A00F8
:100020000C949A000C949A000C949A000C949A00E8
:100030000C949A000C949A000C949A000C949A00D8
:100040000C94610A0C949A000C942F0A0C94090ADF
:100050000C949A000C949A000C949A000C949A00B8
:100060000C949A000C949A00005EBCE2613FDD8320
:10007000C29C7E20A3FD1F41009D23BE46DB65F888
:100080008C11AF32CA57E974000000002400270029
:100090002A0000000000250028002B0000000008B6
:1000A000000201000003040700000000000000003F
:1000B00000000000230026002900040404040404B6
:1000C0000404020202020202030303030303010207
:1000D00004081020408001020408102001020408D6
:1000E0001020AB0A11241FBECFEFD8E0DEBFCDBF7A
:1000F00012E0A0E0B1E0E6E5FEE102C005900D925D
:10010000A03CB107D9F723E0A0ECB2E001C01D92FA
:10011000AB3CB207E1F710E0C2E7D0E004C02197A2
:10012000FE010E940F0FC137D107C9F70E94780B5B
:100130000C94290F0C940000AF92BF92CF92DF92E3
:10014000EF92FF920F931F93CF93DF936C017B018C
:100150008B01040F151FEB015E01AE18BF08C0171D
:10016000D10759F06991D601ED91FC910190F08190
:10017000E02DC6010995892B79F7C501DF91CF9153
:100180001F910F91FF90EF90DF90CF90BF90AF90B5
:100190000895FC01538D448D252F30E0842F90E08D
:1001A000821B930B541710F0CF9608950197089572
:1001B000FC01918D828D981761F0A28DAE0FBF2F3B
:1001C000B11D5D968C91928D9F5F9F73928F90E091
:1001D00008958FEF9FEF0895FC01918D828D981700
:1001E00031F0828DE80FF11D858D90E008958FEF3D
:1001F0009FEF0895FC01918D228D892F90E0805C06
:100200009F4F821B91098F73992708958EED92E07D
:100210000E94FA0021E0892B09F420E0822F089542
:1002200080E090E0892B29F00E94060181110C9456
:1002300000000895FC01A48DA80FB92FB11DA35A89
:10024000BF4F2C91848D90E001968F739927848FF6
:10025000A689B7892C93A089B1898C918370806419
:100260008C93938D848D981306C00288F389E02DBA
:1002700080818F7D80830895EF92FF920F931F936B
:10028000CF93DF93EC0181E0888F9B8D8C8D981349
:100290001AC0E889F989808185FF15C09FB7F89455
:1002A000EE89FF896083E889F989808183708064A1
:1002B00080839FBF81E090E0DF91CF911F910F91EC
:1002C000FF90EF900895F62E0B8D10E00F5F1F4FFB
:1002D0000F731127E02E8C8D8E110CC00FB607FC0A
:1002E000FACFE889F989808185FFF5CFCE010E9498
:1002F0001A01F1CFEB8DEC0FFD2FF11DE35AFF4FEB
:10030000F0829FB7F8940B8FEA89FB898081806225
:10031000CFCFCF93DF93EC01888D8823B9F0AA89E2
:10032000BB89E889F9898C9185FD03C0808186FDB0
:100330000DC00FB607FCF7CF8C9185FFF2CF8081FF
:1003400085FFEDCFCE010E941A01E9CFDF91CF9159
:10035000089590E0FC01E456FF4F2491FC01E25324
:10036000FF4F3491FC01E654FF4FE491EE23C9F0B6
:10037000222339F0233001F1A8F4213019F1223081
:1003800029F1F0E0EE0FFF1FEE56FF4FA591B4915B
:100390008FB7F894EC91611126C030953E233C93C1
:1003A0008FBF08952730A9F02830C9F0243049F7CD
:1003B000809180008F7D03C0809180008F77809333
:1003C0008000DFCF84B58F7784BDDBCF84B58F7D90
:1003D000FBCF8091B0008F778093B000D2CF809117
:1003E000B0008F7DF9CF3E2BDACFCF93DF9390E033
:1003F000FC01E253FF4F249186549F4FFC018491EE
:100400008823D1F090E0880F991FFC01E857FF4F37
:10041000A591B491FC01EE56FF4FC591D4916111A5
:100420000EC09FB7F8948C91E22FE0958E238C93A9
:100430002881E223E8839FBFDF91CF9108958FB792
:10044000F894EC91E22BEC938FBFF6CF8E50806442
:1004500080937C0080917A00806480937A00809100
:100460007A0086FDFCCF8091780090917900089504
:100470003FB7F8948091CA029091CB02A091CC0230
:10048000B091CD0226B5A89B05C02F3F19F001966B
:10049000A11DB11D3FBFBA2FA92F982F8827BC01DE
:1004A000CD01620F711D811D911D42E0660F771F06
:1004B000881F991F4A95D1F70895FC0180818823F0
:1004C00079F12FB7F8948091C6029091C702A0915C
:1004D000C802B091C9022FBF4181528163817481EA
:1004E000841B950BA60BB70B4581568167817085E0
:1004F00084179507A607B70798F02FB7F89480914F
:10050000C6029091C702A091C802B091C9022FBF44
:1005100081839283A383B4830184F285E02D0994BF
:100520000895DC0180E0615090F09D919827E92FBB
:10053000EF70F0E0E859FF4F2491E92FE295EF705A
:10054000F0E0E858FF4FE491822F8E27ECCF08951A
:10055000DC012C911196ED91FC91F8948181822B14
:1005600081839281322F30959323928387E090E0AC
:100570000197F1F781818323818383E290E00197E2
:10058000F1F790817894EFECF0E03197F1F7922356
:1005900081E009F480E00895FC0190810180F281FE
:1005A000E02D292F209560FF14C0F89482818223CA
:1005B00082838181892B8183A3E2B0E01197F1F7D7
:1005C0008281982B9283789487ED90E00197F1F7E0
:1005D0000895F8948281822382838181892B81838B
:1005E000AFEFB0E01197F1F78281982B9283789466
:1005F0008FE090E0EBCFDF92EF92FF920F931F938B
:10060000CF93DF93EC01D62EE42E08E010E0FF2418
:10061000F39461E08D2D8F2109F460E0CE010E94FA
:10062000CC02FF0C01501109A1F7E11010C0F894A1
:10063000E981FA8191818881809589238183E9818B
:10064000FA81928188818095892382837894DF91D1
:10065000CF911F910F91FF90EF90DF900895EF924F
:10066000FF920F931F93CF93DF938C017B0140E0A8
:1006700065E50E94FB02E70188E0E80EF11C699144
:1006800040E0C8010E94FB02CE15DF05C1F7DF91F3
:10069000CF911F910F91FF90EF900895FC019081F1
:1006A0000180F281E02DF8948181292F2095822309
:1006B000818378943DE743E050E0315029F1DA013D
:1006C0001197F1F780818923C1F3F8948281822305
:1006D00082838181892B81837894ABE7B7E011977E
:1006E000F1F7F894818182238183A3E1B1E011972E
:1006F000F1F78081982381E009F080E07894E3E6C7
:10070000F6E03197F1F7089580E008956F927F92B7
:100710008F929F92AF92BF92CF92DF92EF92FF9211
:100720000F931F93CF93DF938C01EB018091AF0365
:100730009091B0030E944E03882309F43FC0B80192
:100740008091AF039091B0030E942F0340E06EEBC5
:100750008091AF039091B0030E94FB027E016E0175
:1007600089E0C80ED11C8E01A090AF03B090B003F9
:1007700088E0882E912C712C66246394C5010E9418
:10078000A80281117628660CE1E08E1A9108B1F773
:10079000F80171928F01CE16DF0631F78091AF0319
:1007A0009091B0030E944E03813041F4F701819192
:1007B0007F01811105C0E017F107C1F790E008C083
:1007C00068E0CE010E94910291E028852813F6CFBF
:1007D000892FDF91CF911F910F91FF90EF90DF90C4
:1007E000CF90BF90AF909F908F907F906F90089523
:1007F000CF93DF93CDB7DEB729970FB6F894DEBF5E
:100800000FBECDBFBE016F5F7F4F0E94860388235E
:1008100031F08D818F33A9F020F48F31A1F080E089
:1008200007C08F3521F08F37D1F78CE001C08BE006
:1008300029960FB6F894DEBF0FBECDBFDF91CF91E2
:1008400008958AE0F5CF89E0F3CF8FE00E94260279
:100850008835924094F4EEECF2E0A2E7B2E0128226
:100860008D919D9191838083349682E0EE3DF807CF
:10087000B1F760E083E10C94A90108958A309105F5
:1008800050F5FC01EA5BFB4F0C940F0F50046E0413
:100890005304560459045C045F046204650468044C
:1008A00080E591E0089580E192E0089580E092E093
:1008B000089580EF91E0089580EE91E0089580ED35
:1008C00091E0089580EC91E0089580EB91E0089527
:1008D00080EA91E0089590E080E0089580E292E05F
:1008E0000895CF92DF92FF920F931F93CF93DF93E0
:1008F000F62EEC0102E812E06C0180E1C80ED11C7A
:1009000068812296F80180810E5F1F4F0E94A90125
:10091000CC15DD05A9F7FF2059F060E085E0DF91F7
:10092000CF911F910F91FF90DF90CF900C94A90170
:10093000DF91CF911F910F91FF90DF90CF9008959D
:10094000CF92DF92EF92FF920F931F93CF93DF939B
:10095000CDB7DEB728970FB6F894DEBF0FBECDBF78
:100960008C0188E0EAE7F2E0DE01119601900D9239
:100970008A95E1F7CE0101967C016E0199E0C90EDE
:10098000D11CF7018081F2E0EF0EF11C60E00E94C3
:10099000A901EC14FD04A9F7F8013197EE0FFF1F30
:1009A00081E090E08C0F9D1FE80FF91F61E08081CE
:1009B00028960FB6F894DEBF0FBECDBFDF91CF9162
:1009C0001F910F91FF90EF90DF90CF900C94A901B1
:1009D00061E08CE00E94A90161E088E00E94A90129
:1009E00061E084E00E94A90161E086E00E94A90123
:1009F00061E087E00E94A90161E08BE00E94A9010B
:100A000061E083E00E94A90161E085E00C94A90106
:100A1000DF92EF92FF920F931F93CF93DF93CEEC71
:100A2000D2E010E000E00F5F1F4F8B8181110CC0FE
:100A3000DA80E880F9800E94E804C8010E94A004DE
:100A40006D2DC7010E94710424960430110559F7D9
:100A5000DF91CF911F910F91FF90EF90DF9008955C
:100A6000BF92CF92DF92EF92FF920F931F93CF939B
:100A7000DF93EC01B62EC72E8D85811105C0CE0106
:100A80000E944E0381110EC01B861D861C8680E0CD
:100A9000DF91CF911F910F91FF90EF90DF90CF905A
:100AA000BF90089540E060EFCE010E94FB0201E09C
:100AB000E12CD12C11E0CE010E94A802F82ECE012B
:100AC0000E94A80291E0F91218C0813099F5113402
:100AD000D8F2DB86D11002C081E08D878B8188231C
:100AE00099F22396EB2DFC2DCF01089629912193A5
:100AF000E817F907D9F781E0CBCFEE2DF0E0F81237
:100B00000FC08B851817A0F4DE01AE0FBF1F139620
:100B10008C91802379F4F12C193008F41C87D12EA4
:100B2000EC0FFD1F8381902F9095892383830AC04A
:100B30008113F1CFFE01EE0DF11D8381802B8383A4
:100B4000FF24F3946F2DCE010E94CC021F5F000F93
:100B500011F4E39401E087E08E1508F0ACCFB7CF35
:100B60004F925F926F927F929F92AF92BF92CF927D
:100B7000DF92EF92FF920F931F93CF93DF93CDB746
:100B8000DEB72A970FB6F894DEBF0FBECDBFE09157
:100B9000AF03F091B0031386158614861286118672
:100BA000108617821682158214821382BE01665F38
:100BB0007F4F8091AF039091B0030E94300588234E
:100BC00009F47EC167E0CE010A960E9491029989DC
:100BD000891376C18A85803111F41CE008C0CE01EA
:100BE0000A960E94F803182F882309F45DC08091AB
:100BF000AF039091B0030E944E03BE01665F7F4F2A
:100C00008091AF039091B0030E942F034091A703FE
:100C100064E48091AF039091B0030E94FB02809145
:100C2000AB03882309F440C019508EEE92E01330D4
:100C300040F4E12FF0E0EE0FFF1FEE56FD4F8081F4
:100C400091816C01990FEE08FF088091AC03882315
:100C5000D9F18091A703811137C08FB7F8944090E4
:100C6000C6025090C7026090C8027090C9028FBF40
:100C70008091AF039091B0030E94A8028130A1F04F
:100C80002FB7F8948091C6029091C702A091C80234
:100C9000B091C9022FBF84199509A609B7098C150F
:100CA0009D05AE05BF0520F3BE016F5F7F4FCE01EE
:100CB0000A960E94860381113AC0412C512C5EEFA6
:100CC000652E52EC752E73C08091A803882329F0FD
:100CD00060E08091A9030E94A9010E9438022B01C3
:100CE0003C01C114D104E104F104B9F00E943802BE
:100CF0006419750986099709683E73408105910555
:100D000080F321E0C21AD108E108F10848EE440E50
:100D100043E0541E611C711CE4CF8091A80388231A
:100D200019F261E08091A9030E94A901BDCF6A81F7
:100D300070E0762F6627770F770F770F298188E08D
:100D4000289F90011124262B372B8A858031E1F4CE
:100D500068856623C9F070E08F81FB01E81BF1090B
:100D6000CF019695982F8827979587950E94D90E41
:100D7000CB018097B901F3E0660F771FFA95E1F791
:100D800060789C01260F371F2138F4EE3F070CF4E2
:100D900094CFB901330F880B990B0E94B20D20E05C
:100DA00030E040E05CE30E94670E2B013C01409282
:100DB000C1025092C2026092C3027092C40282E6E3
:100DC00092E09093DB028093DA021092DC021092A0
:100DD000DD0220E030E040E85FE3C301B2010E94A1
:100DE000750D87FF2EC082E592E09093CF0280932D
:100DF000CE021092D0021092D102C301B2010E9421
:100E00007A0D0AE010E0CB01B8010E94D90E7B01F7
:100E10000E943E049093D7028093D6021092D8028B
:100E20001092D902C701B8010E94D90E0E943E0457
:100E30009093D3028093D2021092D4021092D502E2
:100E40002EC020E030E046EC52E4C301B2010E9423
:100E5000620E18160CF04AC0C301B2010E947A0D4E
:100E6000262F972F3EECC32E32E0D32E02EC12E059
:100E70004AE0E42EF12C822FB7010E94D90E5B01CB
:100E80000E943E04F60191878087128613862A2DE0
:100E90009B2DF4E0CF1AD1080C151D0561F711E068
:100EA00020E030E040E252E4C301B2010E94620E51
:100EB00018160CF010E061E0612783E10E94A9019F
:100EC0002A960FB6F894DEBF0FBECDBFDF91CF914B
:100ED0001F910F91FF90EF90DF90CF90BF90AF9058
:100EE0009F907F906F905F904F90089520E030E04A
:100EF00040E251E4C301B2010E94670E0E947A0DE4
:100F00007B010EEC12E083E0C82ED12C9AE0A92ED2
:100F1000B12CC701B5010E94D90E21E0C216D1043F
:100F200021F499249394009709F0912C0E943E0497
:100F3000F8019187808712869386C701B5010E94C8
:100F4000D90E7B01F1E0CF1AD10804501109C11468
:100F5000D104F9F681E08093D40270CFFC010190B6
:100F60000020E9F73197AF01481B590BBC018EED0A
:100F700092E00C949C008F929F92AF92BF920F933D
:100F80001F93CF93DF93CDB7DEB7A1970FB6F89439
:100F9000DEBF0FBECDBF19A2423008F44AE08E0179
:100FA0000F5D1F4F842E912CB12CA12CA501940113
:100FB0000E94ED0EE62FB901CA01EA30F4F4E05DBB
:100FC000D801EE938D01232B242B252B79F790E06C
:100FD00080E0109719F0CD010E94AE07A1960FB6E0
:100FE000F894DEBF0FBECDBFDF91CF911F910F915F
:100FF000BF90AF909F908F900895E95CE1CF2F92C2
:101000003F924F925F926F927F928F929F92AF9298
:10101000BF92CF92DF92EF92FF920F931F93CF93E5
:10102000DF93CDB7DEB72B970FB6F894DEBF0FBEB8
:10103000CDBF80E10E942602BC01990F880B990B5D
:101040000E94B20D6B017C0121E0298320E030E099
:10105000A9010E94750D81111982A7019601C7018E
:10106000B6010E94D40E882309F476C08AEA92E081
:101070000E94AE0786EB92E00E94AE078091C0020C
:101080003981831709F4ACC160E083E10E94A901B2
:1010900069816093C00220E030E0A901C701B60178
:1010A0000E94750D882309F4E9C080E392E09A83D9
:1010B00089831B8210E000E0912C812CEE24EA94BD
:1010C000FE2C2FEF3FEF3B872A8764E0C62ED12C02
:1010D00066246394712C0E94E80460E08DE00E9415
:1010E000A90160E08AE00E94A90160E089E00E9415
:1010F000A90160E082E00E94A9018A859B85880F92
:10110000991F69817A81680F791F7D836C83412CD7
:1011100044E0542E8A859B85881999099987888788
:10112000161417040CF0AFC095E0C916D1040CF0EA
:10113000AAC05301CA14DB040CF4A5C00E94E80441
:10114000C5010E94A00460E082E592E00E94710463
:10115000EFEFAE1ABE0AEECF46015701E894B7F89A
:101160002FEF3FEF4FE75FE7C501B4010E94D40EB8
:1011700081110DC02FEF3FEF4FE75FE7C501B401CD
:101180000E94750D18161CF48EEA92E071CF2FEFB5
:101190003FEF4FE75FE4C701B6010E94620E1816E9
:1011A0001CF482EB92E064CF2FEF3FEF4FE75FEC50
:1011B000C701B6010E94750D87FDF3CF20E030E036
:1011C000A901C701B6010E94750D87FF54C06DE2E9
:1011D0008EED92E00E943C01C701B60190582AE0D2
:1011E00037ED43EA5BE30E94090D2B013C010E94AD
:1011F000810D4B015C010E94B00D9B01AC01C3014C
:10120000B2010E94080D2B013C014AE0C501B40166
:101210000E94BB076EE28EED92E00E943C0120E04E
:1012200030E040E251E4C301B2010E94670E2B019D
:101230003C010E94810D4B01B12CA12C4AE0C5015B
:10124000B4010E94BB07C501B4010E94B00D9B010F
:10125000AC01C301B2010E94080D20E030E040E281
:1012600051E40E94670E0E94810D90E080E04AE008
:101270000E94BB07FFCEC701B601B1CFE0E4F2E0A8
:10128000FA83E98316CF2A853B852F3F3F4F59F1DB
:1012900079E0E716F1043CF51814190424F505303B
:1012A00011050CF52C803D8054010A151B05DCF05E
:1012B000888599858A0D9B1DE816F906A4F0F10131
:1012C000219131911F013F832E830E94E804C501C3
:1012D0000E94A00460E08E819F810E9471043FEF14
:1012E000A31AB30AE2CF61E0461A510809F018CFF9
:1012F00078E0E716F1041CF48FEFE81AF80A9B81F6
:10130000911136C090E080E0C114D10431F0C601E3
:101310000197630111F4D12CC12C8A94892829F5F5
:101320002A853B852F5F3F4F3B872A874C013FEF44
:10133000831A930A87016A857B85061B170B080DA4
:10134000191D97012F5F3F4FA701461B570B4430D4
:10135000510544F42930310529F471E07B8328E0FC
:10136000E22EF12C36016C01B6CE1B861A86DECF3A
:1013700002301105CCF08A859B85883091051CF4DC
:1013800001969B878A878701EA85FB850E1B1F0BC9
:101390006801F2E0CF0ED11C0F5F1F4F88248394A9
:1013A000912C84E090E0DECF61E083E12B960FB6D4
:1013B000F894DEBF0FBECDBFDF91CF911F910F918B
:1013C000FF90EF90DF90CF90BF90AF909F908F9065
:1013D0007F906F905F904F903F902F900C94A90159
:1013E0002B960FB6F894DEBF0FBECDBFDF91CF9125
:1013F0001F910F91FF90EF90DF90CF90BF90AF9033
:101400009F908F907F906F905F904F903F902F9024
:1014100008951F920F920FB60F9211242F933F93AE
:101420004F935F936F937F938F939F93AF93BF93EC
:10143000EF93FF938EED92E00E941A01FF91EF91DE
:10144000BF91AF919F918F917F916F915F914F91DC
:101450003F912F910F900FBE0F901F9018951F92E4
:101460000F920FB60F9211242F938F939F93EF93A8
:10147000FF93E091EE02F091EF028081E091F4029F
:10148000F091F50282FD1BC090818091F7028F5F81
:101490008F732091F802821741F0E091F702F0E09B
:1014A000E252FD4F958F8093F702FF91EF919F914C
:1014B0008F912F910F900FBE0F901F9018958081E4
:1014C000F4CF1F920F920FB60F9211242F933F93D8
:1014D0008F939F93AF93BF938091C6029091C70261
:1014E000A091C802B091C9023091C50223E0230F38
:1014F0002D3758F50196A11DB11D2093C50280938B
:10150000C6029093C702A093C802B093C90280910B
:10151000CA029091CB02A091CC02B091CD0201966B
:10152000A11DB11D8093CA029093CB02A093CC025F
:10153000B093CD02BF91AF919F918F913F912F9129
:101540000F900FBE0F901F90189526E8230F02965C
:10155000A11DB11DD2CFCF92DF92EF92FF92EEED9F
:10156000F2E01382128288EEC82E83E0D82EE12C9E
:10157000F12CC482D582E682F7828CE992E09183D5
:10158000808385EC90E09587848784EC90E0978752
:10159000868780EC90E0918B808B81EC90E0938B40
:1015A000828B82EC90E0958B848B86EC90E0978B1D
:1015B000868B118E128E138E148E60E08EE00E9448
:1015C000F501ECEDF0E0E491ADEBB3E0EC93E8EC89
:1015D000F0E0E491F0E0EE0FFF1FE055FF4F859142
:1015E000949112969C938E9311971B961C921B9725
:1015F0001D961C921D971C961C921C971A961C9265
:101600001A9719961C92199718961C921897179664
:101610001C92179716961C92169715961C92159762
:1016200014961C92149713961C921397E7EAF3E012
:10163000B187A08716821782108289E0838381E0B8
:1016400084838583158A148A1182ECE9F3E0808310
:10165000118212821382148241E050E060E070E057
:10166000458356836783708728E035E0328721877A
:10167000E1E9F3E08083118212821382148244EF45
:1016800051E060E070E0458356836783708725E210
:1016900034E032872187E6E8F3E08083118212820A
:1016A00013821482C582D682E782F08620EB35E071
:1016B00032872187EBE7F3E0808311821282138265
:1016C000148280ED97E0A0E0B0E085839683A78345
:1016D000B0878FEF97E09287818780E292E09093C6
:1016E000750280937402FF90EF90DF90CF90089581
:1016F000CF93DF93CDB7DEB728970FB6F894DEBF50
:101700000FBECDBF789484B5826084BD84B58160FE
:1017100084BD85B5826085BD85B5816085BD8091BC
:101720006E00816080936E00109281008091810034
:10173000826080938100809181008160809381002C
:10174000809180008160809380008091B1008460EE
:101750008093B1008091B00081608093B00080914F
:101760007A00846080937A0080917A00826080930E
:101770007A0080917A00816080937A0080917A006B
:10178000806880937A001092C1001092D00280E6A7
:1017900091E09093CF028093CE021092D1021092EA
:1017A000D40280E591E09093D3028093D20210920C
:1017B000D5021092D80280E491E09093D7028093F2
:1017C000D6021092D9021092DC0280E391E090934D
:1017D000DB028093DA021092DD0261E08CE00E946D
:1017E000F50161E088E00E94F50161E084E00E947B
:1017F000F50161E086E00E94F50161E087E00E946A
:10180000F50161E08BE00E94F50161E083E00E9458
:10181000F50161E08DE00E94F50161E08AE00E943F
:10182000F50161E089E00E94F50161E082E00E943B
:10183000F50161E085E00E94F501E091AF03F091D0
:10184000B0031386158614861286118610861782B9
:1018500016821582148213821092AD031092AE0389
:1018600001E0BE016F5F7F4F8091AF039091B003A5
:101870000E943005882309F468C067E0CE01019614
:101880000E94910298858913ECCF8091A703811162
:1018900028C08091AF039091B0030E944E03BE0117
:1018A0006F5F7F4F8091AF039091B0030E942F0331
:1018B00040E064EB8091AF039091B0030E94FB0283
:1018C0008091AF039091B0030E94A802182F8091DD
:1018D000AF039091B0030E944E03111102C0009318
:1018E000A7031091AA038981803109F48DC0CE012C
:1018F00001960E94F8038117C0F48091AA03809397
:10190000AA038091AD038F5F8093AD0389818832F4
:1019100031F0A8F4803119F0823209F0A2CF809121
:10192000AE038F5F8093AE039CCF8981803111F429
:101930008CE0E5CFCE0101960E94F803E0CF8B3317
:1019400071F3823409F08DCFEACF1092AB03E091AE
:10195000EE02F091EF0282E08083E091EA02F091E2
:10196000EB021082E091EC02F091ED028FEC8083AB
:101970001092F602E091F202F091F30286E0808389
:10198000E091F002F091F102808180618083E0912A
:10199000F002F091F102808188608083E091F00292
:1019A000F091F102808180688083E091F002F091F3
:1019B000F10280818F7D808389EB92E00E94AE07E7
:1019C00086EB92E00E94AE0761E083E10E94F501A0
:1019D00000E010E086E893E00E945D028CE993E06D
:1019E0000E945D0281E993E00E945D028BE793E033
:1019F0000E945D020115110569F30E94060188230A
:101A000049F30E940000E6CF1D3008F076CF90CF5A
:101A10005058BB27AA270E94200D0C94280E0E9424
:101A20001A0E38F00E94210E20F039F49F3F19F46D
:101A300026F40C94170E0EF4E095E7FB0C94110EAF
:101A4000E92F0E94390E58F3BA176207730784070B
:101A5000950720F079F4A6F50C945B0E0EF4E09552
:101A60000B2EBA2FA02D0B01B90190010C01CA0158
:101A7000A0011124FF27591B99F0593F50F4503E03
:101A800068F11A16F040A22F232F342F4427585FF5
:101A9000F3CF469537952795A795F0405395C9F70D
:101AA0007EF41F16BA0B620B730B840BBAF09150C5
:101AB000A1F0FF0FBB1F661F771F881FC2F70EC064
:101AC000BA0F621F731F841F48F487957795679537
:101AD000B795F7959E3F08F0B0CF9395880F08F023
:101AE0009927EE0F9795879508950E94ED0D08F4BC
:101AF00081E008950E94810D6894B1110C945C0EF0
:101B000008950E94410E88F09F5798F0B92F9927A9
:101B1000B751B0F0E1F0660F771F881F991F1AF0D8
:101B2000BA95C9F714C0B13091F00E945B0EB1E0D4
:101B300008950C945B0E672F782F8827B85F39F0D3
:101B4000B93FCCF3869577956795B395D9F73EF471
:101B500090958095709561957F4F8F4F9F4F089519
:101B6000E89409C097FB3EF4909580957095619537
:101B70007F4F8F4F9F4F9923A9F0F92F96E9BB27ED
:101B80009395F695879577956795B795F111F8CF69
:101B9000FAF4BB0F11F460FF1BC06F5F7F4F8F4FD4
:101BA0009F4F16C0882311F096E911C0772321F0CA
:101BB0009EE8872F762F05C0662371F096E8862F62
:101BC00070E060E02AF09A95660F771F881FDAF7B9
:101BD000880F9695879597F90895990F0008550FE6
:101BE000AA0BE0E8FEEF16161706E807F907C0F0A3
:101BF00012161306E407F50798F0621B730B840BAB
:101C0000950B39F40A2661F0232B242B252B21F484
:101C100008950A2609F4A140A6958FEF811D811D24
:101C2000089597F99F6780E870E060E008959FEF5E
:101C300080EC089500240A94161617061806090663
:101C4000089500240A941216130614060506089532
:101C5000092E0394000C11F4882352F0BB0F40F4BA
:101C6000BF2B11F460FF04C06F5F7F4F8F4F9F4FFA
:101C7000089557FD9058440F551F59F05F3F71F07C
:101C80004795880F97FB991F61F09F3F79F08795E3
:101C90000895121613061406551FF2CF4695F1DF6C
:101CA00008C0161617061806991FF1CF86957105FC
:101CB000610508940895E894BB2766277727CB0130
:101CC00097F908950E94ED0D08F48FEF08950E9492
:101CD0007A0E0C94280E0E941A0E38F00E94210EE3
:101CE00020F0952311F00C94110E0C94170E112472
:101CF0000C945C0E0E94390E70F3959FC1F3950F02
:101D000050E0551F629FF001729FBB27F00DB11D7F
:101D1000639FAA27F00DB11DAA1F649F6627B00D0F
:101D2000A11D661F829F2227B00DA11D621F739FF8
:101D3000B00DA11D621F839FA00D611D221F749F06
:101D40003327A00D611D231F849F600D211D822F4D
:101D5000762F6A2F11249F5750409AF0F1F0882374
:101D60004AF0EE0FFF1FBB1F661F771F881F9150A1
:101D70005040A9F79E3F510580F00C94110E0C9431
:101D80005C0E5F3FE4F3983ED4F3869577956795B4
:101D9000B795F795E7959F5FC1F7FE2B880F911DCB
:101DA0009695879597F908950E94ED0D880B990BEC
:101DB000089597FB072E16F4009407D077FD09D0FD
:101DC0000E94150F07FC05D03EF4909581959F4F1A
:101DD0000895709561957F4F0895A1E21A2EAA1B70
:101DE000BB1BFD010DC0AA1FBB1FEE1FFF1FA217CB
:101DF000B307E407F50720F0A21BB30BE40BF50BC8
:101E0000661F771F881F991F1A9469F76095709550
:101E1000809590959B01AC01BD01CF010895EE0F17
:101E2000FF1F0590F491E02D0994AA1BBB1B51E103
:101E300007C0AA1FBB1FA617B70710F0A61BB70B3A
:101E4000881F991F5A95A9F780959095BC01CD01DF
:061E50000895F894FFCF95
:101E56000100010001000100010001000100010074
:101E66000000000001000100000000000000010069
:101E76000000000000000100000000000100010059
:101E86000100000000000000000001000000010049
:101E9600000000000000010000000000000001003A
:101EA600000000000000000000000000010001002A
:101EB6000100010001000000000000000100010017
:101EC6000000010001000000000000000000010009
:101ED60000000100010001000000000001000100F7
:101EE60000000100010001000000000000000100E8
:101EF60000000000000000000100000000000100DA
:101F060000000000000000000000000000000100CA
:101F160000000000000001000100010001000100B6
:101F260000000100000000000000000000000100A9
:101F36000000010000000000010000000000010098
:101F46000100000000000100010000000000010087
:101F56000000000000000000010001000000010078
:101F66000000000001000000000001000000010068
:101F76000100000000000100010001000100010055
:101F86006001400120011001000150012001000103
:101F960060014001200110010001500190019001F3
:101FA6000001010001000100010001000100000024
:101FB6000100010001000100000000000100000016
:101FC600010090010000800170010D000A00090067
:101FD60002000C0008000400060007000B000300C6
:101FE60005005E00BC007701000000003C019C007B
:101FF600C9008901FA00D800EC006E616E00696EB6
:1020060066006F7666000D0A005345545550000071
:00000001FF
